{
  "contractName": "workchop",
  "abi": [
    {
      "inputs": [],
      "stateMutability": "nonpayable",
      "type": "constructor"
    },
    {
      "inputs": [
        {
          "internalType": "address",
          "name": "",
          "type": "address"
        }
      ],
      "name": "address_to_id",
      "outputs": [
        {
          "internalType": "uint256",
          "name": "",
          "type": "uint256"
        }
      ],
      "stateMutability": "view",
      "type": "function",
      "constant": true
    },
    {
      "inputs": [
        {
          "internalType": "uint256",
          "name": "",
          "type": "uint256"
        }
      ],
      "name": "certifications",
      "outputs": [
        {
          "internalType": "string",
          "name": "url",
          "type": "string"
        },
        {
          "internalType": "string",
          "name": "issue_date",
          "type": "string"
        },
        {
          "internalType": "string",
          "name": "valid_till",
          "type": "string"
        },
        {
          "internalType": "string",
          "name": "name",
          "type": "string"
        },
        {
          "internalType": "uint256",
          "name": "id",
          "type": "uint256"
        },
        {
          "internalType": "string",
          "name": "issuer",
          "type": "string"
        }
      ],
      "stateMutability": "view",
      "type": "function",
      "constant": true
    },
    {
      "inputs": [
        {
          "internalType": "uint256",
          "name": "",
          "type": "uint256"
        }
      ],
      "name": "companies",
      "outputs": [
        {
          "internalType": "uint256",
          "name": "id",
          "type": "uint256"
        },
        {
          "internalType": "string",
          "name": "name",
          "type": "string"
        },
        {
          "internalType": "address",
          "name": "wallet_address",
          "type": "address"
        }
      ],
      "stateMutability": "view",
      "type": "function",
      "constant": true
    },
    {
      "inputs": [
        {
          "internalType": "string",
          "name": "",
          "type": "string"
        }
      ],
      "name": "email_to_address",
      "outputs": [
        {
          "internalType": "address",
          "name": "",
          "type": "address"
        }
      ],
      "stateMutability": "view",
      "type": "function",
      "constant": true
    },
    {
      "inputs": [
        {
          "internalType": "uint256",
          "name": "",
          "type": "uint256"
        }
      ],
      "name": "employees",
      "outputs": [
        {
          "internalType": "uint256",
          "name": "id",
          "type": "uint256"
        },
        {
          "internalType": "uint256",
          "name": "company_id",
          "type": "uint256"
        },
        {
          "internalType": "string",
          "name": "name",
          "type": "string"
        },
        {
          "internalType": "address",
          "name": "wallet_address",
          "type": "address"
        },
        {
          "internalType": "bool",
          "name": "is_employed",
          "type": "bool"
        },
        {
          "internalType": "bool",
          "name": "is_manager",
          "type": "bool"
        },
        {
          "internalType": "uint256",
          "name": "num_skill",
          "type": "uint256"
        }
      ],
      "stateMutability": "view",
      "type": "function",
      "constant": true
    },
    {
      "inputs": [
        {
          "internalType": "uint256",
          "name": "",
          "type": "uint256"
        }
      ],
      "name": "endorsments",
      "outputs": [
        {
          "internalType": "uint256",
          "name": "endorser_id",
          "type": "uint256"
        },
        {
          "internalType": "string",
          "name": "date",
          "type": "string"
        },
        {
          "internalType": "string",
          "name": "comment",
          "type": "string"
        }
      ],
      "stateMutability": "view",
      "type": "function",
      "constant": true
    },
    {
      "inputs": [
        {
          "internalType": "uint256",
          "name": "",
          "type": "uint256"
        }
      ],
      "name": "experiences",
      "outputs": [
        {
          "internalType": "string",
          "name": "starting_date",
          "type": "string"
        },
        {
          "internalType": "string",
          "name": "ending_date",
          "type": "string"
        },
        {
          "internalType": "string",
          "name": "role",
          "type": "string"
        },
        {
          "internalType": "bool",
          "name": "currently_working",
          "type": "bool"
        },
        {
          "internalType": "uint256",
          "name": "company_id",
          "type": "uint256"
        },
        {
          "internalType": "bool",
          "name": "is_approved",
          "type": "bool"
        }
      ],
      "stateMutability": "view",
      "type": "function",
      "constant": true
    },
    {
      "inputs": [
        {
          "internalType": "address",
          "name": "",
          "type": "address"
        }
      ],
      "name": "is_company",
      "outputs": [
        {
          "internalType": "bool",
          "name": "",
          "type": "bool"
        }
      ],
      "stateMutability": "view",
      "type": "function",
      "constant": true
    },
    {
      "inputs": [
        {
          "internalType": "uint256",
          "name": "",
          "type": "uint256"
        }
      ],
      "name": "skills",
      "outputs": [
        {
          "internalType": "uint256",
          "name": "id",
          "type": "uint256"
        },
        {
          "internalType": "string",
          "name": "name",
          "type": "string"
        },
        {
          "internalType": "bool",
          "name": "verified",
          "type": "bool"
        }
      ],
      "stateMutability": "view",
      "type": "function",
      "constant": true
    },
    {
      "inputs": [
        {
          "internalType": "string",
          "name": "email",
          "type": "string"
        },
        {
          "internalType": "string",
          "name": "name",
          "type": "string"
        },
        {
          "internalType": "string",
          "name": "acc_type",
          "type": "string"
        }
      ],
      "name": "sign_up",
      "outputs": [],
      "stateMutability": "nonpayable",
      "type": "function"
    },
    {
      "inputs": [
        {
          "internalType": "string",
          "name": "email",
          "type": "string"
        }
      ],
      "name": "login",
      "outputs": [
        {
          "internalType": "string",
          "name": "",
          "type": "string"
        }
      ],
      "stateMutability": "view",
      "type": "function",
      "constant": true
    },
    {
      "inputs": [
        {
          "internalType": "string",
          "name": "email",
          "type": "string"
        },
        {
          "internalType": "address",
          "name": "new_address",
          "type": "address"
        }
      ],
      "name": "update_wallet_address",
      "outputs": [],
      "stateMutability": "nonpayable",
      "type": "function"
    },
    {
      "inputs": [
        {
          "internalType": "uint256",
          "name": "user_id",
          "type": "uint256"
        },
        {
          "internalType": "string",
          "name": "starting_date",
          "type": "string"
        },
        {
          "internalType": "string",
          "name": "ending_date",
          "type": "string"
        },
        {
          "internalType": "string",
          "name": "role",
          "type": "string"
        },
        {
          "internalType": "uint256",
          "name": "company_id",
          "type": "uint256"
        }
      ],
      "name": "add_experience",
      "outputs": [],
      "stateMutability": "nonpayable",
      "type": "function"
    },
    {
      "inputs": [
        {
          "internalType": "uint256",
          "name": "exp_id",
          "type": "uint256"
        },
        {
          "internalType": "uint256",
          "name": "company_id",
          "type": "uint256"
        }
      ],
      "name": "approve_experience",
      "outputs": [],
      "stateMutability": "nonpayable",
      "type": "function"
    },
    {
      "inputs": [
        {
          "internalType": "uint256",
          "name": "employee_id",
          "type": "uint256"
        }
      ],
      "name": "approve_manager",
      "outputs": [],
      "stateMutability": "nonpayable",
      "type": "function"
    },
    {
      "inputs": [
        {
          "internalType": "uint256",
          "name": "userid",
          "type": "uint256"
        },
        {
          "internalType": "string",
          "name": "skill_name",
          "type": "string"
        }
      ],
      "name": "add_skill",
      "outputs": [],
      "stateMutability": "nonpayable",
      "type": "function"
    },
    {
      "inputs": [
        {
          "internalType": "uint256",
          "name": "user_id",
          "type": "uint256"
        },
        {
          "internalType": "string",
          "name": "url",
          "type": "string"
        },
        {
          "internalType": "string",
          "name": "issue_date",
          "type": "string"
        },
        {
          "internalType": "string",
          "name": "valid_till",
          "type": "string"
        },
        {
          "internalType": "string",
          "name": "name",
          "type": "string"
        },
        {
          "internalType": "string",
          "name": "issuer",
          "type": "string"
        },
        {
          "internalType": "uint256",
          "name": "linked_skill_id",
          "type": "uint256"
        }
      ],
      "name": "add_certification",
      "outputs": [],
      "stateMutability": "nonpayable",
      "type": "function"
    },
    {
      "inputs": [
        {
          "internalType": "uint256",
          "name": "user_id",
          "type": "uint256"
        },
        {
          "internalType": "uint256",
          "name": "skill_id",
          "type": "uint256"
        },
        {
          "internalType": "string",
          "name": "endorsing_date",
          "type": "string"
        },
        {
          "internalType": "string",
          "name": "comment",
          "type": "string"
        }
      ],
      "name": "endorse_skill",
      "outputs": [],
      "stateMutability": "nonpayable",
      "type": "function"
    }
  ],
  "bytecode": "0x60806040523480156200001157600080fd5b5060006001808160018154018082558091505003906000526020600020906007020190506040518060400160405280600581526020017f64756d6d7900000000000000000000000000000000000000000000000000000081525081600201908051906020019062000084929190620001f1565b50338160030160006101000a81548173ffffffffffffffffffffffffffffffffffffffff021916908373ffffffffffffffffffffffffffffffffffffffff16021790555060008160000181905550600067ffffffffffffffff81111562000114577f4e487b7100000000000000000000000000000000000000000000000000000000600052604160045260246000fd5b604051908082528060200260200182016040528015620001435781602001602082028036833780820191505090505b508160050190805190602001906200015d92919062000282565b50600067ffffffffffffffff811115620001a0577f4e487b7100000000000000000000000000000000000000000000000000000000600052604160045260246000fd5b604051908082528060200260200182016040528015620001cf5781602001602082028036833780820191505090505b50816006019080519060200190620001e992919062000282565b505062000358565b828054620001ff90620002f3565b90600052602060002090601f0160209004810192826200022357600085556200026f565b82601f106200023e57805160ff19168380011785556200026f565b828001600101855582156200026f579182015b828111156200026e57825182559160200191906001019062000251565b5b5090506200027e9190620002d4565b5090565b828054828255906000526020600020908101928215620002c1579160200282015b82811115620002c0578251825591602001919060010190620002a3565b5b509050620002d09190620002d4565b5090565b5b80821115620002ef576000816000905550600101620002d5565b5090565b600060028204905060018216806200030c57607f821691505b6020821081141562000323576200032262000329565b5b50919050565b7f4e487b7100000000000000000000000000000000000000000000000000000000600052602260045260246000fd5b61392780620003686000396000f3fe608060405234801561001057600080fd5b50600436106101165760003560e01c806350d15fbe116100a2578063b1e116c311610071578063b1e116c314610322578063cf3e7c7c14610354578063dd7a753814610389578063edf85a86146103b9578063f86b20cb146103d557610116565b806350d15fbe146102885780635a2ec07c146102ba5780637a52f30e146102d6578063884ffe321461030657610116565b806336d77eaa116100e957806336d77eaa146101a15780633a7d280c146101bd5780633c0359a4146101ed5780634739326b146102225780634845a2951461025857610116565b8063067709dd1461011b5780630c1bc591146101375780631575cdea146101535780632813d19d1461016f575b600080fd5b61013560048036038101906101309190612c70565b6103f1565b005b610151600480360381019061014c9190612d86565b610579565b005b61016d60048036038101906101689190612b5c565b610786565b005b61018960048036038101906101849190612bf3565b610d1a565b60405161019893929190613304565b60405180910390f35b6101bb60048036038101906101b69190612bf3565b610dfc565b005b6101d760048036038101906101d29190612ac7565b611053565b6040516101e491906130ed565b60405180910390f35b61020760048036038101906102029190612bf3565b6111cb565b60405161021996959493929190613185565b60405180910390f35b61023c60048036038101906102379190612bf3565b6114bf565b60405161024f97969594939291906133c5565b60405180910390f35b610272600480360381019061026d9190612ac7565b6115d3565b60405161027f91906130b7565b60405180910390f35b6102a2600480360381019061029d9190612bf3565b61161c565b6040516102b193929190613342565b60405180910390f35b6102d460048036038101906102cf9190612c1c565b6116eb565b005b6102f060048036038101906102eb9190612a9e565b61192a565b6040516102fd91906132e9565b60405180910390f35b610320600480360381019061031b9190612b08565b611942565b005b61033c60048036038101906103379190612bf3565b611b1d565b60405161034b93929190613380565b60405180910390f35b61036e60048036038101906103699190612bf3565b611c67565b6040516103809695949392919061310f565b60405180910390f35b6103a3600480360381019061039e9190612a9e565b611e65565b6040516103b091906130d2565b60405180910390f35b6103d360048036038101906103ce9190612e45565b611e85565b005b6103ef60048036038101906103ea9190612e81565b6125d8565b005b86600760003373ffffffffffffffffffffffffffffffffffffffff1673ffffffffffffffffffffffffffffffffffffffff16815260200190815260200160002054811461043d57600080fd5b6000600260018160018154018082558091505003906000526020600020906006020190508781600001908051906020019061047992919061291c565b508681600101908051906020019061049292919061291c565b50858160020190805190602001906104ab92919061291c565b50848160030190805190602001906104c492919061291c565b5060016002805490506104d791906134b8565b8160040181905550838160050190805190602001906104f792919061291c565b5060048381548110610532577f4e487b7100000000000000000000000000000000000000000000000000000000600052603260045260246000fd5b906000526020600020906005020160030181600401549080600181540180825580915050600190039060005260206000200160009091909190915055505050505050505050565b84600760003373ffffffffffffffffffffffffffffffffffffffff1673ffffffffffffffffffffffffffffffffffffffff1681526020019081526020016000205481146105c557600080fd5b60006005600181600181540180825580915050039060005260206000209060060201905082816004018190555060008160030160006101000a81548160ff02191690831515021790555060008160050160006101000a81548160ff0219169083151502179055508581600001908051906020019061064492919061291c565b508381600201908051906020019061065d92919061291c565b508481600101908051906020019061067692919061291c565b50600187815481106106b1577f4e487b7100000000000000000000000000000000000000000000000000000000600052603260045260246000fd5b906000526020600020906007020160060160016005805490506106d491906134b8565b908060018154018082558091505060019003906000526020600020016000909190919091505560008381548110610734577f4e487b7100000000000000000000000000000000000000000000000000000000600052603260045260246000fd5b9060005260206000209060060201600501600160058054905061075791906134b8565b908060018154018082558091505060019003906000526020600020016000909190919091505550505050505050565b600073ffffffffffffffffffffffffffffffffffffffff166006846040516107ae91906130a0565b908152602001604051809103902060009054906101000a900473ffffffffffffffffffffffffffffffffffffffff1673ffffffffffffffffffffffffffffffffffffffff1614610833576040517f08c379a000000000000000000000000000000000000000000000000000000000815260040161082a906132a9565b60405180910390fd5b3360068460405161084491906130a0565b908152602001604051809103902060006101000a81548173ffffffffffffffffffffffffffffffffffffffff021916908373ffffffffffffffffffffffffffffffffffffffff1602179055506108cf816040518060400160405280600481526020017f75736572000000000000000000000000000000000000000000000000000000008152506128e0565b15610aca5760006001808160018154018082558091505003906000526020600020906007020190508281600201908051906020019061090f92919061291c565b506001808054905061092191906134b8565b8160000181905550338160030160006101000a81548173ffffffffffffffffffffffffffffffffffffffff021916908373ffffffffffffffffffffffffffffffffffffffff1602179055508060000154600760003373ffffffffffffffffffffffffffffffffffffffff1673ffffffffffffffffffffffffffffffffffffffff16815260200190815260200160002081905550600067ffffffffffffffff8111156109f5577f4e487b7100000000000000000000000000000000000000000000000000000000600052604160045260246000fd5b604051908082528060200260200182016040528015610a235781602001602082028036833780820191505090505b50816005019080519060200190610a3b9291906129a2565b50600067ffffffffffffffff811115610a7d577f4e487b7100000000000000000000000000000000000000000000000000000000600052604160045260246000fd5b604051908082528060200260200182016040528015610aab5781602001602082028036833780820191505090505b50816006019080519060200190610ac39291906129a2565b5050610d15565b600080600181600181540180825580915050039060005260206000209060060201905082816001019080519060200190610b0592919061291c565b506001600080549050610b1891906134b8565b8160000181905550338160020160006101000a81548173ffffffffffffffffffffffffffffffffffffffff021916908373ffffffffffffffffffffffffffffffffffffffff160217905550600067ffffffffffffffff811115610ba4577f4e487b7100000000000000000000000000000000000000000000000000000000600052604160045260246000fd5b604051908082528060200260200182016040528015610bd25781602001602082028036833780820191505090505b50816003019080519060200190610bea9291906129a2565b50600067ffffffffffffffff811115610c2c577f4e487b7100000000000000000000000000000000000000000000000000000000600052604160045260246000fd5b604051908082528060200260200182016040528015610c5a5781602001602082028036833780820191505090505b50816004019080519060200190610c729291906129a2565b508060000154600760003373ffffffffffffffffffffffffffffffffffffffff1673ffffffffffffffffffffffffffffffffffffffff168152602001908152602001600020819055506001600860003373ffffffffffffffffffffffffffffffffffffffff1673ffffffffffffffffffffffffffffffffffffffff16815260200190815260200160002060006101000a81548160ff021916908315150217905550505b505050565b60008181548110610d2a57600080fd5b9060005260206000209060060201600091509050806000015490806001018054610d5390613576565b80601f0160208091040260200160405190810160405280929190818152602001828054610d7f90613576565b8015610dcc5780601f10610da157610100808354040283529160200191610dcc565b820191906000526020600020905b815481529060010190602001808311610daf57829003601f168201915b5050505050908060020160009054906101000a900473ffffffffffffffffffffffffffffffffffffffff16905083565b600860003373ffffffffffffffffffffffffffffffffffffffff1673ffffffffffffffffffffffffffffffffffffffff16815260200190815260200160002060009054906101000a900460ff16610e88576040517f08c379a0000000000000000000000000000000000000000000000000000000008152600401610e7f90613229565b60405180910390fd5b600760003373ffffffffffffffffffffffffffffffffffffffff1673ffffffffffffffffffffffffffffffffffffffff1681526020019081526020016000205460018281548110610f02577f4e487b7100000000000000000000000000000000000000000000000000000000600052603260045260246000fd5b90600052602060002090600702016001015414610f54576040517f08c379a0000000000000000000000000000000000000000000000000000000008152600401610f4b90613269565b60405180910390fd5b60018181548110610f8e577f4e487b7100000000000000000000000000000000000000000000000000000000600052603260045260246000fd5b906000526020600020906007020160030160159054906101000a900460ff1615610fed576040517f08c379a0000000000000000000000000000000000000000000000000000000008152600401610fe4906132c9565b60405180910390fd5b6001808281548110611028577f4e487b7100000000000000000000000000000000000000000000000000000000600052603260045260246000fd5b906000526020600020906007020160030160156101000a81548160ff02191690831515021790555050565b606060068260405161106591906130a0565b908152602001604051809103902060009054906101000a900473ffffffffffffffffffffffffffffffffffffffff1673ffffffffffffffffffffffffffffffffffffffff163373ffffffffffffffffffffffffffffffffffffffff1614611101576040517f08c379a00000000000000000000000000000000000000000000000000000000081526004016110f890613249565b60405180910390fd5b600860003373ffffffffffffffffffffffffffffffffffffffff1673ffffffffffffffffffffffffffffffffffffffff16815260200190815260200160002060009054906101000a900460ff1661118d576040518060400160405280600481526020017f75736572000000000000000000000000000000000000000000000000000000008152506111c4565b6040518060400160405280600781526020017f636f6d70616e79000000000000000000000000000000000000000000000000008152505b9050919050565b600281815481106111db57600080fd5b90600052602060002090600602016000915090508060000180546111fe90613576565b80601f016020809104026020016040519081016040528092919081815260200182805461122a90613576565b80156112775780601f1061124c57610100808354040283529160200191611277565b820191906000526020600020905b81548152906001019060200180831161125a57829003601f168201915b50505050509080600101805461128c90613576565b80601f01602080910402602001604051908101604052809291908181526020018280546112b890613576565b80156113055780601f106112da57610100808354040283529160200191611305565b820191906000526020600020905b8154815290600101906020018083116112e857829003601f168201915b50505050509080600201805461131a90613576565b80601f016020809104026020016040519081016040528092919081815260200182805461134690613576565b80156113935780601f1061136857610100808354040283529160200191611393565b820191906000526020600020905b81548152906001019060200180831161137657829003601f168201915b5050505050908060030180546113a890613576565b80601f01602080910402602001604051908101604052809291908181526020018280546113d490613576565b80156114215780601f106113f657610100808354040283529160200191611421565b820191906000526020600020905b81548152906001019060200180831161140457829003601f168201915b50505050509080600401549080600501805461143c90613576565b80601f016020809104026020016040519081016040528092919081815260200182805461146890613576565b80156114b55780601f1061148a576101008083540402835291602001916114b5565b820191906000526020600020905b81548152906001019060200180831161149857829003601f168201915b5050505050905086565b600181815481106114cf57600080fd5b90600052602060002090600702016000915090508060000154908060010154908060020180546114fe90613576565b80601f016020809104026020016040519081016040528092919081815260200182805461152a90613576565b80156115775780601f1061154c57610100808354040283529160200191611577565b820191906000526020600020905b81548152906001019060200180831161155a57829003601f168201915b5050505050908060030160009054906101000a900473ffffffffffffffffffffffffffffffffffffffff16908060030160149054906101000a900460ff16908060030160159054906101000a900460ff16908060040154905087565b6006818051602081018201805184825260208301602085012081835280955050505050506000915054906101000a900473ffffffffffffffffffffffffffffffffffffffff1681565b6004818154811061162c57600080fd5b906000526020600020906005020160009150905080600001549080600101805461165590613576565b80601f016020809104026020016040519081016040528092919081815260200182805461168190613576565b80156116ce5780601f106116a3576101008083540402835291602001916116ce565b820191906000526020600020905b8154815290600101906020018083116116b157829003601f168201915b5050505050908060020160009054906101000a900460ff16905083565b81600760003373ffffffffffffffffffffffffffffffffffffffff1673ffffffffffffffffffffffffffffffffffffffff16815260200190815260200160002054811461173757600080fd5b60006004600181600181540180825580915050039060005260206000209060050201905060018481548110611795577f4e487b7100000000000000000000000000000000000000000000000000000000600052603260045260246000fd5b906000526020600020906007020160050160016004805490506117b891906134b8565b9080600181540180825580915050600190039060005260206000200160009091909190915055828160010190805190602001906117f692919061291c565b5060008160020160006101000a81548160ff021916908315150217905550600067ffffffffffffffff811115611855577f4e487b7100000000000000000000000000000000000000000000000000000000600052604160045260246000fd5b6040519080825280602002602001820160405280156118835781602001602082028036833780820191505090505b5081600301908051906020019061189b9291906129a2565b50600067ffffffffffffffff8111156118dd577f4e487b7100000000000000000000000000000000000000000000000000000000600052604160045260246000fd5b60405190808252806020026020018201604052801561190b5781602001602082028036833780820191505090505b508160040190805190602001906119239291906129a2565b5050505050565b60076020528060005260406000206000915090505481565b3373ffffffffffffffffffffffffffffffffffffffff1660068360405161196991906130a0565b908152602001604051809103902060009054906101000a900473ffffffffffffffffffffffffffffffffffffffff1673ffffffffffffffffffffffffffffffffffffffff16146119ee576040517f08c379a00000000000000000000000000000000000000000000000000000000081526004016119e590613289565b60405180910390fd5b806006836040516119ff91906130a0565b908152602001604051809103902060006101000a81548173ffffffffffffffffffffffffffffffffffffffff021916908373ffffffffffffffffffffffffffffffffffffffff1602179055506000600760003373ffffffffffffffffffffffffffffffffffffffff1673ffffffffffffffffffffffffffffffffffffffff1681526020019081526020016000205490506000600760003373ffffffffffffffffffffffffffffffffffffffff1673ffffffffffffffffffffffffffffffffffffffff1681526020019081526020016000208190555080600760008473ffffffffffffffffffffffffffffffffffffffff1673ffffffffffffffffffffffffffffffffffffffff16815260200190815260200160002081905550505050565b60038181548110611b2d57600080fd5b9060005260206000209060030201600091509050806000015490806001018054611b5690613576565b80601f0160208091040260200160405190810160405280929190818152602001828054611b8290613576565b8015611bcf5780601f10611ba457610100808354040283529160200191611bcf565b820191906000526020600020905b815481529060010190602001808311611bb257829003601f168201915b505050505090806002018054611be490613576565b80601f0160208091040260200160405190810160405280929190818152602001828054611c1090613576565b8015611c5d5780601f10611c3257610100808354040283529160200191611c5d565b820191906000526020600020905b815481529060010190602001808311611c4057829003601f168201915b5050505050905083565b60058181548110611c7757600080fd5b9060005260206000209060060201600091509050806000018054611c9a90613576565b80601f0160208091040260200160405190810160405280929190818152602001828054611cc690613576565b8015611d135780601f10611ce857610100808354040283529160200191611d13565b820191906000526020600020905b815481529060010190602001808311611cf657829003601f168201915b505050505090806001018054611d2890613576565b80601f0160208091040260200160405190810160405280929190818152602001828054611d5490613576565b8015611da15780601f10611d7657610100808354040283529160200191611da1565b820191906000526020600020905b815481529060010190602001808311611d8457829003601f168201915b505050505090806002018054611db690613576565b80601f0160208091040260200160405190810160405280929190818152602001828054611de290613576565b8015611e2f5780601f10611e0457610100808354040283529160200191611e2f565b820191906000526020600020905b815481529060010190602001808311611e1257829003601f168201915b5050505050908060030160009054906101000a900460ff16908060040154908060050160009054906101000a900460ff16905086565b60086020528060005260406000206000915054906101000a900460ff1681565b600860003373ffffffffffffffffffffffffffffffffffffffff1673ffffffffffffffffffffffffffffffffffffffff16815260200190815260200160002060009054906101000a900460ff168015611fb2575060058281548110611f13577f4e487b7100000000000000000000000000000000000000000000000000000000600052603260045260246000fd5b9060005260206000209060060201600401546000600760003373ffffffffffffffffffffffffffffffffffffffff1673ffffffffffffffffffffffffffffffffffffffff1681526020019081526020016000205481548110611f9e577f4e487b7100000000000000000000000000000000000000000000000000000000600052603260045260246000fd5b906000526020600020906006020160000154145b8061213157506001600760003373ffffffffffffffffffffffffffffffffffffffff1673ffffffffffffffffffffffffffffffffffffffff1681526020019081526020016000205481548110612031577f4e487b7100000000000000000000000000000000000000000000000000000000600052603260045260246000fd5b906000526020600020906007020160030160159054906101000a900460ff168015612130575060058281548110612091577f4e487b7100000000000000000000000000000000000000000000000000000000600052603260045260246000fd5b9060005260206000209060060201600401546001600760003373ffffffffffffffffffffffffffffffffffffffff1673ffffffffffffffffffffffffffffffffffffffff168152602001908152602001600020548154811061211c577f4e487b7100000000000000000000000000000000000000000000000000000000600052603260045260246000fd5b906000526020600020906007020160010154145b5b612170576040517f08c379a000000000000000000000000000000000000000000000000000000000815260040161216790613209565b60405180910390fd5b60006001600584815481106121ae577f4e487b7100000000000000000000000000000000000000000000000000000000600052603260045260246000fd5b906000526020600020906006020160050160006101000a81548160ff021916908315150217905550600090505b60008281548110612215577f4e487b7100000000000000000000000000000000000000000000000000000000600052603260045260246000fd5b90600052602060002090600602016005018054905081101561237057826000838154811061226c577f4e487b7100000000000000000000000000000000000000000000000000000000600052603260045260246000fd5b906000526020600020906006020160050182815481106122b5577f4e487b7100000000000000000000000000000000000000000000000000000000600052603260045260246000fd5b9060005260206000200154141561235d576000808381548110612301577f4e487b7100000000000000000000000000000000000000000000000000000000600052603260045260246000fd5b9060005260206000209060060201600501828154811061234a577f4e487b7100000000000000000000000000000000000000000000000000000000600052603260045260246000fd5b9060005260206000200181905550612370565b8080612368906135d9565b9150506121db565b600090505b600082815481106123af577f4e487b7100000000000000000000000000000000000000000000000000000000600052603260045260246000fd5b90600052602060002090600602016003018054905081101561250a576000808381548110612406577f4e487b7100000000000000000000000000000000000000000000000000000000600052603260045260246000fd5b9060005260206000209060060201600301828154811061244f577f4e487b7100000000000000000000000000000000000000000000000000000000600052603260045260246000fd5b906000526020600020015414156124f757826000838154811061249b577f4e487b7100000000000000000000000000000000000000000000000000000000600052603260045260246000fd5b906000526020600020906006020160050182815481106124e4577f4e487b7100000000000000000000000000000000000000000000000000000000600052603260045260246000fd5b906000526020600020018190555061250a565b8080612502906135d9565b915050612375565b60008281548110612544577f4e487b7100000000000000000000000000000000000000000000000000000000600052603260045260246000fd5b9060005260206000209060060201600301805490508114156125d3576000828154811061259a577f4e487b7100000000000000000000000000000000000000000000000000000000600052603260045260246000fd5b90600052602060002090600602016003018390806001815401808255809150506001900390600052602060002001600090919091909150555b505050565b600060036001816001815401808255809150500390600052602060002090600302019050600760003373ffffffffffffffffffffffffffffffffffffffff1673ffffffffffffffffffffffffffffffffffffffff1681526020019081526020016000205481600001819055508181600201908051906020019061265c92919061291c565b508281600101908051906020019061267592919061291c565b50600484815481106126b0577f4e487b7100000000000000000000000000000000000000000000000000000000600052603260045260246000fd5b906000526020600020906005020160040160016003805490506126d391906134b8565b90806001815401808255809150506001900390600052602060002001600090919091909150556001600760003373ffffffffffffffffffffffffffffffffffffffff1673ffffffffffffffffffffffffffffffffffffffff1681526020019081526020016000205481548110612772577f4e487b7100000000000000000000000000000000000000000000000000000000600052603260045260246000fd5b906000526020600020906007020160030160159054906101000a900460ff16156128d957600185815481106127d0577f4e487b7100000000000000000000000000000000000000000000000000000000600052603260045260246000fd5b9060005260206000209060070201600101546001600760003373ffffffffffffffffffffffffffffffffffffffff1673ffffffffffffffffffffffffffffffffffffffff168152602001908152602001600020548154811061285b577f4e487b7100000000000000000000000000000000000000000000000000000000600052603260045260246000fd5b90600052602060002090600702016001015414156128d8576001600485815481106128af577f4e487b7100000000000000000000000000000000000000000000000000000000600052603260045260246000fd5b906000526020600020906005020160020160006101000a81548160ff0219169083151502179055505b5b5050505050565b60006128ec83836128f4565b905092915050565b600081518351148015612914575081805190602001208380519060200120145b905092915050565b82805461292890613576565b90600052602060002090601f01602090048101928261294a5760008555612991565b82601f1061296357805160ff1916838001178555612991565b82800160010185558215612991579182015b82811115612990578251825591602001919060010190612975565b5b50905061299e91906129ef565b5090565b8280548282559060005260206000209081019282156129de579160200282015b828111156129dd5782518255916020019190600101906129c2565b5b5090506129eb91906129ef565b5090565b5b80821115612a085760008160009055506001016129f0565b5090565b6000612a1f612a1a84613460565b61343b565b905082815260208101848484011115612a3757600080fd5b612a42848285613534565b509392505050565b600081359050612a59816138c3565b92915050565b600082601f830112612a7057600080fd5b8135612a80848260208601612a0c565b91505092915050565b600081359050612a98816138da565b92915050565b600060208284031215612ab057600080fd5b6000612abe84828501612a4a565b91505092915050565b600060208284031215612ad957600080fd5b600082013567ffffffffffffffff811115612af357600080fd5b612aff84828501612a5f565b91505092915050565b60008060408385031215612b1b57600080fd5b600083013567ffffffffffffffff811115612b3557600080fd5b612b4185828601612a5f565b9250506020612b5285828601612a4a565b9150509250929050565b600080600060608486031215612b7157600080fd5b600084013567ffffffffffffffff811115612b8b57600080fd5b612b9786828701612a5f565b935050602084013567ffffffffffffffff811115612bb457600080fd5b612bc086828701612a5f565b925050604084013567ffffffffffffffff811115612bdd57600080fd5b612be986828701612a5f565b9150509250925092565b600060208284031215612c0557600080fd5b6000612c1384828501612a89565b91505092915050565b60008060408385031215612c2f57600080fd5b6000612c3d85828601612a89565b925050602083013567ffffffffffffffff811115612c5a57600080fd5b612c6685828601612a5f565b9150509250929050565b600080600080600080600060e0888a031215612c8b57600080fd5b6000612c998a828b01612a89565b975050602088013567ffffffffffffffff811115612cb657600080fd5b612cc28a828b01612a5f565b965050604088013567ffffffffffffffff811115612cdf57600080fd5b612ceb8a828b01612a5f565b955050606088013567ffffffffffffffff811115612d0857600080fd5b612d148a828b01612a5f565b945050608088013567ffffffffffffffff811115612d3157600080fd5b612d3d8a828b01612a5f565b93505060a088013567ffffffffffffffff811115612d5a57600080fd5b612d668a828b01612a5f565b92505060c0612d778a828b01612a89565b91505092959891949750929550565b600080600080600060a08688031215612d9e57600080fd5b6000612dac88828901612a89565b955050602086013567ffffffffffffffff811115612dc957600080fd5b612dd588828901612a5f565b945050604086013567ffffffffffffffff811115612df257600080fd5b612dfe88828901612a5f565b935050606086013567ffffffffffffffff811115612e1b57600080fd5b612e2788828901612a5f565b9250506080612e3888828901612a89565b9150509295509295909350565b60008060408385031215612e5857600080fd5b6000612e6685828601612a89565b9250506020612e7785828601612a89565b9150509250929050565b60008060008060808587031215612e9757600080fd5b6000612ea587828801612a89565b9450506020612eb687828801612a89565b935050604085013567ffffffffffffffff811115612ed357600080fd5b612edf87828801612a5f565b925050606085013567ffffffffffffffff811115612efc57600080fd5b612f0887828801612a5f565b91505092959194509250565b612f1d816134ec565b82525050565b612f2c816134fe565b82525050565b6000612f3d82613491565b612f47818561349c565b9350612f57818560208601613543565b612f60816136af565b840191505092915050565b6000612f7682613491565b612f8081856134ad565b9350612f90818560208601613543565b80840191505092915050565b6000612fa960528361349c565b9150612fb4826136c0565b606082019050919050565b6000612fcc60238361349c565b9150612fd782613735565b604082019050919050565b6000612fef60338361349c565b9150612ffa82613784565b604082019050919050565b600061301260238361349c565b915061301d826137d3565b604082019050919050565b600061303560348361349c565b915061304082613822565b604082019050919050565b6000613058601b8361349c565b915061306382613871565b602082019050919050565b600061307b60208361349c565b91506130868261389a565b602082019050919050565b61309a8161352a565b82525050565b60006130ac8284612f6b565b915081905092915050565b60006020820190506130cc6000830184612f14565b92915050565b60006020820190506130e76000830184612f23565b92915050565b600060208201905081810360008301526131078184612f32565b905092915050565b600060c08201905081810360008301526131298189612f32565b9050818103602083015261313d8188612f32565b905081810360408301526131518187612f32565b90506131606060830186612f23565b61316d6080830185613091565b61317a60a0830184612f23565b979650505050505050565b600060c082019050818103600083015261319f8189612f32565b905081810360208301526131b38188612f32565b905081810360408301526131c78187612f32565b905081810360608301526131db8186612f32565b90506131ea6080830185613091565b81810360a08301526131fc8184612f32565b9050979650505050505050565b6000602082019050818103600083015261322281612f9c565b9050919050565b6000602082019050818103600083015261324281612fbf565b9050919050565b6000602082019050818103600083015261326281612fe2565b9050919050565b6000602082019050818103600083015261328281613005565b9050919050565b600060208201905081810360008301526132a281613028565b9050919050565b600060208201905081810360008301526132c28161304b565b9050919050565b600060208201905081810360008301526132e28161306e565b9050919050565b60006020820190506132fe6000830184613091565b92915050565b60006060820190506133196000830186613091565b818103602083015261332b8185612f32565b905061333a6040830184612f14565b949350505050565b60006060820190506133576000830186613091565b81810360208301526133698185612f32565b90506133786040830184612f23565b949350505050565b60006060820190506133956000830186613091565b81810360208301526133a78185612f32565b905081810360408301526133bb8184612f32565b9050949350505050565b600060e0820190506133da600083018a613091565b6133e76020830189613091565b81810360408301526133f98188612f32565b90506134086060830187612f14565b6134156080830186612f23565b61342260a0830185612f23565b61342f60c0830184613091565b98975050505050505050565b6000613445613456565b905061345182826135a8565b919050565b6000604051905090565b600067ffffffffffffffff82111561347b5761347a613680565b5b613484826136af565b9050602081019050919050565b600081519050919050565b600082825260208201905092915050565b600081905092915050565b60006134c38261352a565b91506134ce8361352a565b9250828210156134e1576134e0613622565b5b828203905092915050565b60006134f78261350a565b9050919050565b60008115159050919050565b600073ffffffffffffffffffffffffffffffffffffffff82169050919050565b6000819050919050565b82818337600083830152505050565b60005b83811015613561578082015181840152602081019050613546565b83811115613570576000848401525b50505050565b6000600282049050600182168061358e57607f821691505b602082108114156135a2576135a1613651565b5b50919050565b6135b1826136af565b810181811067ffffffffffffffff821117156135d0576135cf613680565b5b80604052505050565b60006135e48261352a565b91507fffffffffffffffffffffffffffffffffffffffffffffffffffffffffffffffff82141561361757613616613622565b5b600182019050919050565b7f4e487b7100000000000000000000000000000000000000000000000000000000600052601160045260246000fd5b7f4e487b7100000000000000000000000000000000000000000000000000000000600052602260045260246000fd5b7f4e487b7100000000000000000000000000000000000000000000000000000000600052604160045260246000fd5b6000601f19601f8301169050919050565b7f6572726f723a20617070726f7665722073686f756c642062652074686520636f60008201527f6d70616e79206163636f756e74206f722061206d616e61676572206f6620746860208201527f6520726571756972656420636f6d70616e790000000000000000000000000000604082015250565b7f6572726f723a2073656e646572206e6f74206120636f6d70616e79206163636f60008201527f756e740000000000000000000000000000000000000000000000000000000000602082015250565b7f6572726f723a20696e636f72726563742077616c6c657420616464726573732060008201527f7573656420666f72207369676e696e6720696e00000000000000000000000000602082015250565b7f6572726f723a2075736572206e6f74206f66207468652073616d6520636f6d7060008201527f616e790000000000000000000000000000000000000000000000000000000000602082015250565b7f6572726f723a2066756e6374696f6e2063616c6c65642066726f6d20696e636f60008201527f72726563742077616c6c65742061646472657373000000000000000000000000602082015250565b7f6572726f723a207573657220616c726561647920657869737473210000000000600082015250565b7f6572726f723a207573657220697320616c72656164792061206d616e61676572600082015250565b6138cc816134ec565b81146138d757600080fd5b50565b6138e38161352a565b81146138ee57600080fd5b5056fea26469706673582212203976f443587e38ec21f2cf362c9cee78a98c7e51e3f0661839ac36fecc53319964736f6c63430008010033",
  "immutableReferences": {},
  "source": "// SPDX-License-Identifier: MIT\r\npragma solidity ^0.8.1;\r\n\r\n// userid and company id is a unique natural number representing a account globally.\r\ncontract workchop {\r\n    company[] public companies;\r\n    user[] public employees;\r\n    certificate[] public certifications;\r\n    endorsment[] public endorsments;\r\n    skill[] public skills;\r\n    experience[] public experiences;\r\n\r\n    // mapping of account's mail id with account's wallet address\r\n    mapping(string => address) public email_to_address;\r\n    // mapping of wallet address with account id\r\n    mapping(address => uint256) public address_to_id;\r\n    // mapping of wallet address with bool representing account status (Company/User)\r\n    mapping(address => bool) public is_company;\r\n\r\n    struct company {\r\n        uint256 id; //company id which is the index of id in the global company array\r\n        string name;\r\n        address wallet_address;\r\n        uint256[] current_employees;\r\n        uint256[] previous_employees;\r\n        uint256[] requested_employees;\r\n    }\r\n\r\n    struct user {\r\n        uint256 id;\r\n        uint256 company_id;\r\n        string name;\r\n        address wallet_address;\r\n        bool is_employed;\r\n        bool is_manager;\r\n        uint256 num_skill;\r\n        uint256[] user_skills;\r\n        uint256[] user_work_experience;\r\n    }\r\n    \r\n    struct experience {\r\n        string starting_date;\r\n        string ending_date;\r\n        string role;\r\n        bool currently_working;\r\n        uint256 company_id;\r\n        bool is_approved;\r\n    }\r\n\r\n    function sign_up(\r\n        string memory email,\r\n        string memory name,\r\n        string memory acc_type // account type (Company/User)\r\n    ) public {\r\n        // first we check that account does not already exists\r\n        require(\r\n            email_to_address[email] == address(0),\r\n            \"error: user already exists!\"\r\n        );\r\n        email_to_address[email] = msg.sender;\r\n    \r\n        if (strcmp(acc_type, \"user\")) { // for user account type\r\n            user storage new_user = employees.push(); // creates a new user and returns the reference to it\r\n            new_user.name = name;\r\n            new_user.id = employees.length - 1; // give account a unique user id\r\n            new_user.wallet_address = msg.sender;\r\n            address_to_id[msg.sender] = new_user.id;\r\n            new_user.user_skills = new uint256[](0);\r\n            new_user.user_work_experience = new uint256[](0);\r\n        } else { // for company account type\r\n            company storage new_company = companies.push(); // creates a new company and returns a reference to it\r\n            new_company.name = name;\r\n            new_company.id = companies.length - 1; // give account a unique company id\r\n            new_company.wallet_address = msg.sender;\r\n            new_company.current_employees = new uint256[](0);\r\n            new_company.previous_employees = new uint256[](0);\r\n            address_to_id[msg.sender] = new_company.id;\r\n            is_company[msg.sender] = true;\r\n        }\r\n    }\r\n\r\n    function memcmp(bytes memory a, bytes memory b)\r\n    internal\r\n    pure\r\n    returns (bool)\r\n{\r\n    return (a.length == b.length) && (keccak256(a) == keccak256(b)); // Comapares the two hashes\r\n}\r\n\r\nfunction strcmp(string memory a, string memory b) // string comparison function\r\n    internal\r\n    pure\r\n    returns (bool)\r\n{\r\n    return memcmp(bytes(a), bytes(b));\r\n}\r\n\r\nfunction login(string memory email) public view returns (string memory) {\r\n    // checking the function caller's wallet address from global map containing email address mapped to wallet address\r\n    require(\r\n    msg.sender == email_to_address[email],\r\n    \"error: incorrect wallet address used for signing in\"\r\n    );\r\n    return (is_company[msg.sender]) ? \"company\" : \"user\"; // returns account type\r\n}\r\n\r\nfunction update_wallet_address(string memory email, address new_address)\r\n    public\r\n{\r\n    require(\r\n        email_to_address[email] == msg.sender,\r\n        \"error: function called from incorrect wallet address\"\r\n    );\r\n    email_to_address[email] = new_address;\r\n    uint256 id = address_to_id[msg.sender];\r\n    address_to_id[msg.sender] = 0;\r\n    address_to_id[new_address] = id;\r\n}\r\nstruct certificate {\r\n    string url;\r\n    string issue_date;\r\n    string valid_till;\r\n    string name;\r\n    uint256 id;\r\n    string issuer;\r\n}\r\n\r\nstruct endorsment {\r\n    uint256 endorser_id;\r\n    string date;\r\n    string comment;\r\n}\r\n\r\nstruct skill {\r\n    uint256 id;\r\n    string name;\r\n    bool verified;\r\n    uint256[] skill_certifications;\r\n    uint256[] skill_endorsements;\r\n}\r\n\r\nmodifier verifiedUser(uint256 user_id) {\r\n    require(user_id == address_to_id[msg.sender]);\r\n    _;\r\n}\r\n\r\nfunction add_experience(\r\n    uint256 user_id,\r\n    string memory starting_date,\r\n    string memory ending_date,\r\n    string memory role,\r\n    uint256 company_id\r\n) public verifiedUser(user_id) {\r\n    experience storage new_experience = experiences.push();\r\n    new_experience.company_id = company_id;\r\n    new_experience.currently_working = false;\r\n    new_experience.is_approved = false;\r\n    new_experience.starting_date = starting_date;\r\n    new_experience.role = role;\r\n    new_experience.ending_date = ending_date;\r\n    employees[user_id].user_work_experience.push(experiences.length - 1);\r\n    companies[company_id].requested_employees.push(experiences.length - 1);\r\n}\r\nfunction approve_experience(uint256 exp_id, uint256 company_id) public {\r\n    require(\r\n        (is_company[msg.sender] &&\r\n            companies[address_to_id[msg.sender]].id ==\r\n            experiences[exp_id].company_id) ||\r\n            (employees[address_to_id[msg.sender]].is_manager &&\r\n                employees[address_to_id[msg.sender]].company_id ==\r\n                experiences[exp_id].company_id),\r\n        \"error: approver should be the company account or a manager of the required company\"\r\n    );\r\n  uint256 i;\r\n  experiences[exp_id].is_approved = true;\r\n  for (i = 0; i < companies[company_id].requested_employees.length; i++) {\r\n      if (companies[company_id].requested_employees[i] == exp_id) {\r\n          companies[company_id].requested_employees[i] = 0;\r\n          break;\r\n      }\r\n  }\r\n  for (i = 0; i < companies[company_id].current_employees.length; i++) {\r\n      if (companies[company_id].current_employees[i] == 0) {\r\n          companies[company_id].requested_employees[i] = exp_id;\r\n          break;\r\n      }\r\n  }\r\n  if (i == companies[company_id].current_employees.length)\r\n      companies[company_id].current_employees.push(exp_id);\r\n}\r\nconstructor() {\r\n    user storage dummy_user = employees.push();\r\n    dummy_user.name = \"dummy\";\r\n    dummy_user.wallet_address = msg.sender;\r\n    dummy_user.id = 0;\r\n    dummy_user.user_skills = new uint256[](0);\r\n    dummy_user.user_work_experience = new uint256[](0);\r\n}\r\n\r\nfunction approve_manager(uint256 employee_id) public {\r\n    require(is_company[msg.sender], \"error: sender not a company account\");\r\nrequire(\r\n    employees[employee_id].company_id == address_to_id[msg.sender],\r\n    \"error: user not of the same company\"\r\n);\r\nrequire(\r\n    !(employees[employee_id].is_manager),\r\n    \"error: user is already a manager\"\r\n);\r\nemployees[employee_id].is_manager = true;\r\n}\r\nfunction add_skill(uint256 userid, string memory skill_name)\r\n    public\r\n    verifiedUser(userid) { // the modifier that we created above\r\n    skill storage new_skill = skills.push();\r\n    employees[userid].user_skills.push(skills.length - 1);\r\n    new_skill.name = skill_name;\r\n    new_skill.verified = false;\r\n    new_skill.skill_certifications = new uint256[](0);\r\n    new_skill.skill_endorsements = new uint256[](0);\r\n}\r\nfunction add_certification(\r\n    uint256 user_id,\r\n    string memory url,\r\n    string memory issue_date,\r\n    string memory valid_till,\r\n    string memory name,\r\n    string memory issuer,\r\n    uint256 linked_skill_id\r\n) public verifiedUser(user_id) {\r\n    certificate storage new_certificate = certifications.push();\r\n    new_certificate.url = url;\r\n    new_certificate.issue_date = issue_date;\r\n    new_certificate.valid_till = valid_till;\r\n    new_certificate.name = name;\r\n    new_certificate.id = certifications.length - 1;\r\n    new_certificate.issuer = issuer;\r\n    skills[linked_skill_id].skill_certifications.push(new_certificate.id);\r\n}\r\nfunction endorse_skill(\r\n    uint256 user_id,\r\n    uint256 skill_id,\r\n    string memory endorsing_date,\r\n    string memory comment\r\n) public {\r\n    endorsment storage new_endorsemnt = endorsments.push();\r\n    new_endorsemnt.endorser_id = address_to_id[msg.sender];\r\n    new_endorsemnt.comment = comment;\r\n    new_endorsemnt.date = endorsing_date;\r\n    skills[skill_id].skill_endorsements.push(endorsments.length - 1);\r\n    if (employees[address_to_id[msg.sender]].is_manager) {\r\n        if (\r\n            employees[address_to_id[msg.sender]].company_id ==\r\n            employees[user_id].company_id\r\n        ) {\r\n            skills[skill_id].verified = true;\r\n        }\r\n    }\r\n}\r\n}",
  "sourcePath": "C:\\workchop\\contracts\\workchop.sol",
  "compiler": {
    "name": "solc",
    "version": "0.8.1+commit.df193b15.Emscripten.clang"
  },
  "schemaVersion": "3.4.11",
  "updatedAt": "2023-01-25T01:16:43.536Z",
  "networkType": "ethereum",
  "devdoc": {
    "kind": "dev",
    "methods": {},
    "version": 1
  },
  "userdoc": {
    "kind": "user",
    "methods": {},
    "version": 1
  }
}